:100000000C944A000C9452030C9467000C94670003
:100010000C9467000C9467000C9467000C946700C4
:100020000C9467000C9467000C9467000C946700B4
:100030000C9467000C9467000C94F4020C94FE027C
:100040000C9467000C9467000C9467000C94670094
:100050000C9467000C9422030C9467000C946700C6
:100060000C9467000C946700B50141024102ED0158
:1000700041024102410241028F01690141024102F4
:100080004102DC01410241024102580141024102A8
:100090004102400111241FBECFEFD8E0DEBFCDBF2B
:1000A00011E0A0E0B1E0E2E9FFE002C005900D92AE
:1000B000A03DB107D9F722E0A0EDB1E001C01D924B
:1000C000AC31B207E1F70E9442020C94C7070C94CE
:1000D0000000809100018D3621F0823709F445C07F
:1000E000089580917800909179009C01220F331F30
:1000F000220F331F820F931F9093D7018093D60155
:100100008091D6019091D7016AE070E00E947C0452
:100110007093D7016093D6018091D6019091D70159
:100120009F938F938DEC91E09F938F930E94CC04CB
:10013000ECE7F0E08081807F83608083E1E1F2E0A2
:100140008081837C8C60808382E7809300012FEF25
:1001500086E791E0215080409040E1F700C0000028
:100160000F900F900F900F900895809178009091CC
:1001700079009093D5018093D401ECE7F0E0808181
:10018000807F82608083E1E1F2E08081837C88600F
:1001900080838DE6809300012FEF86E791E0215068
:1001A00080409040E1F700C0000008958091D001A8
:1001B000811113C08091D4019091D5018B3F91059D
:1001C0001CF4419A449A08958091D4019091D501EC
:1001D0008F30914014F04198449808958091D00157
:1001E00081110EC08091D6019091D70144970CF0F7
:1001F000409A8091D6019091D70142970CF4409893
:1002000008958091D1018236A1F0843629F580913C
:10021000D301813009F51092D2018091D20188BDBD
:100220001092D3018FE19EE40197F1F700C0000026
:1002300008958091D30181110FC08EE18093D20186
:100240008091D20188BD81E08093D3018FE19EE44B
:100250000197F1F700C0000008950E945F048093A9
:10026000D101E091D1018E2F90E0FC01E356F1091C
:10027000E631F10508F005C1EC5CFF4F0C94B204C7
:100280008091D001811108C08FE091E00E94E204CA
:1002900081E08093D00108958091D001813009F0F0
:1002A000F0C082E291E00E94E2041092D001089531
:1002B0008091D6019091D7019F938F9388E391E02D
:1002C0009F938F930E94CC040F900F900F900F90EC
:1002D00008958091D00181110DC0419B04C08AE432
:1002E00091E00E94E2044199CCC086E591E00E9431
:1002F000E20408958091D001813009F0C2C0319BA1
:1003000006C0419886E591E00E94E2040895319983
:10031000B8C0419A8AE491E00E94E2040895809175
:10032000D00181110DC0449B04C08AE491E00E9479
:10033000E2044499A6C086E591E00E94E204089593
:100340008091D001813009F09CC0349B06C0449854
:1003500085E691E00E94E2040895349992C0449A9F
:1003600085E791E00E94E20408958091D001811117
:1003700016C08091D6019091D7010F9724F082E8A2
:1003800091E00E94E2048091D6019091D7010C97F0
:100390000CF077C081E991E00E94E2040895809119
:1003A000D001813009F06DC0309B02C040980895A3
:1003B000309967C0409A08958091D301813021F42B
:1003C00083EA91E00E94E2048091D301811159C037
:1003D00081EB91E00E94E20408958091D0018111A7
:1003E00004C08FE091E00E94E2048091D00181304E
:1003F00021F482E291E00E94E2048091D601909182
:10040000D7019F938F9380EC91E09F938F930E94ED
:10041000CC040F900F900F900F90419B04C08AE482
:1004200091E00E94E204419904C086E591E00E94B7
:10043000E204449B04C085E791E00E94E2044499F1
:1004400004C085E691E00E94E204409B04C082E87B
:1004500091E00E94E204409904C081E991E00E9489
:10046000E2048091D301813021F483EA91E00E947B
:10047000E2048091D301811104C081EB91E00E94DC
:10048000E20408958FEF8BB982E08AB918B883E34C
:1004900087B982EF8AB9A1ECB0E08C9188608C9327
:1004A000ECE0F2E08081806480838C9180618C93A9
:1004B000808180688083E6E1F2E081E091E09583CD
:1004C0008483938382839183808360E875E280E0F4
:1004D00090E00E949E03E9E6F0E0808182608083E4
:1004E000808181608083E89A85B5846085BD85B50B
:1004F0008D7F85BD85B5816085BDEEE6F0E08081AC
:100500008260808385B5877F85BD84B5826084BD28
:1005100084B5816084BD82E387BD84B5806284BD7B
:1005200084B58F7E84BD8091D20188BD8081846036
:1005300080834CE750E0DA018C918F778C938C911B
:1005400080648C93C0E1D2E088818C7F8160888355
:10055000EAE7F0E08081846080838081826080832C
:1005600080818160808388818C61888380818062C2
:1005700080838881806288838BE790E0DC012C9106
:100580002B7F2C932C9122602C932C9121602C9307
:100590008881806C8883C1E1D2E08881982F9E7F1A
:1005A0009883DA019C91907F92609C93827C886012
:1005B00088839C919F7D9C938D7F888380818068B8
:1005C0008083A2E1B2E08C9180618C9390819860ED
:1005D000908380628C9380818064808378940E9471
:1005E000EE000E942D01FBCF1F920F920FB60F92CB
:1005F00011240F900FBE0F901F9018951F920F920D
:100600000FB60F9211242F933F934F935F936F93E5
:100610007F938F939F93AF93BF93EF93FF930E942A
:100620000101FF91EF91BF91AF919F918F917F91C8
:100630006F915F914F913F912F910F900FBE0F904F
:100640001F9018951F920F920FB60F9211242F939F
:100650003F934F935F936F937F938F939F93AF934A
:10066000BF93EF93FF930E9469000E94D600EAE7D0
:10067000F0E0808186FDFDCFEAE7F0E080818061D7
:100680008083FF91EF91BF91AF919F918F917F9167
:100690006F915F914F913F912F910F900FBE0F90EF
:1006A0001F9018951F920F920FB60F9211242F933F
:1006B0008F939F938091D301882399F0813019F50E
:1006C0001092D2018091D20188BD1092D3012FE700
:1006D00088E391E0215080409040E1F700C00000A5
:1006E00012C08EE18093D2018091D20188BD81E059
:1006F0008093D3012FE788E391E021508040904020
:10070000E1F700C000009F918F912F910F900FBED5
:100710000F901F901895E0ECF0E0908195FFFDCFD1
:100720008093C60080E090E00895E0ECF0E08081E6
:100730008823ECF78091C60090E008959B01AC01FE
:10074000E0ECF0E08081837E8083ECE0F2E0808169
:10075000877E8F7D8083837090E08230910509F4DD
:100760004CC08330910509F465C0019719F1E0ECA4
:10077000F0E080818D7F8083E2ECF0E080818E7FED
:10078000808380818F77808380818F7B808360E40A
:1007900072E48FE090E00E94900421503109209390
:1007A0000E02EFE0F2E0932F9F708081807F892B13
:1007B00080836EC0E0ECF0E0808182608083E2ECB8
:1007C000F0E080818E7F808380818F77808380813D
:1007D0008F7B808360E874E88EE190E00E94900453
:1007E0002150310920930E02EFE0F2E0932F9F7029
:1007F0008081807F892B80834BC0E0ECF0E080819A
:100800008D7F808380910C0282FF06C0E2ECF0E0D5
:1008100080818160808305C0E2ECF0E080818E7F82
:100820008083E2ECF0E080818F7780838081806438
:1008300080832EC0E0ECF0E080818D7F808380910A
:100840000C0282FF06C0E2ECF0E0808181608083D0
:1008500005C0E2ECF0E080818E7F8083E2ECF0E086
:1008600080818068808380818064808360E072E121
:100870008AE790E00E9490042150310920930E02F3
:10088000EFE0F2E0932F9F708081807F892B80833F
:1008900080910F02982F9F709093C50090910E0247
:1008A0009093C40085FF0AC0E1ECF0E0808180688D
:1008B0008083EDE0F2E08081826080830895E0EC47
:1008C000F0E080818823ECF79091C000292F2295D9
:1008D0002F70ECE0F2E0808120FB83F9292F269530
:1008E0002695269520FB84F99695969590FB85F99B
:1008F00080838091C600089597FB072E16F400941C
:1009000007D077FD09D00E94B80407FC05D03EF45B
:10091000909581959F4F0895709561957F4F0895AB
:10092000A1E21A2EAA1BBB1BFD010DC0AA1FBB1FF3
:10093000EE1FFF1FA217B307E407F50720F0A21B65
:10094000B30BE40BF50B661F771F881F991F1A94D2
:1009500069F760957095809590959B01AC01BD01FC
:10096000CF010895EE0FFF1F0590F491E02D09943B
:10097000AA1BBB1B51E107C0AA1FBB1FA617B707C5
:1009800010F0A61BB70B881F991F5A95A9F78095E1
:100990009095BC01CD010895A0E0B0E0E2EDF4E057
:1009A0000C94A007AE014B5F5F4FFA01619171910A
:1009B000AF0180911802909119020E941205E2E0A5
:1009C0000C94BC070F931F93CF93DF93E091180211
:1009D000F0911902238121FF1BC08C01D0E0C0E0FF
:1009E000F80181918F016091180270911902DB0169
:1009F0001896ED91FC911997882331F00995892B70
:100A000079F3DFEFCFEFECCF8AE00995892B19F06E
:100A10008FEF9FEF02C08D2F9C2FDF91CF911F9101
:100A20000F910895ACE0B0E0E8E1F5E00C94900798
:100A30007C016B018A01FC0117821682838181FF90
:100A4000BDC1CE0101964C01F7019381F60193FDE2
:100A5000859193FF81916F01882309F4ABC18532A1
:100A600039F493FD859193FF81916F01853229F4CB
:100A7000B70190E00E94FA06E7CF512C312C20E01C
:100A80002032A0F48B3269F030F4803259F0833296
:100A900069F420612CC08D3239F0803339F4216043
:100AA00026C02260246023C0286021C027FD27C003
:100AB00030ED380F3A3078F426FF06C0FAE05F9E3A
:100AC000300D1124532E13C08AE0389E300D1124AE
:100AD000332E20620CC08E3221F426FD6BC12064BF
:100AE00006C08C3611F4206802C0883641F4F60145
:100AF00093FD859193FF81916F018111C1CF982F53
:100B00009F7D9554933028F40C5F1F4FFFE3F983CA
:100B10000DC0833631F0833771F0833509F05BC047
:100B200022C0F801808189830E5F1F4F44244394C3
:100B3000512C540115C03801F2E06F0E711CF80100
:100B4000A080B18026FF03C0652D70E002C06FEF6A
:100B50007FEFC5012C870E94EF062C0183012C85B5
:100B60002F77222E17C03801F2E06F0E711CF801AA
:100B7000A080B18026FF03C0652D70E002C06FEF3A
:100B80007FEFC5012C870E94E4062C012C8520688C
:100B9000222E830123FC1BC0832D90E048165906AA
:100BA000B0F4B70180E290E00E94FA063A94F4CFE4
:100BB000F50127FC859127FE81915F01B70190E047
:100BC0000E94FA0631103A94F1E04F1A510841148C
:100BD000510471F7E5C0843611F0893639F5F80112
:100BE00027FF07C060817181828193810C5F1F4F55
:100BF00008C060817181072E000C880B990B0E5F75
:100C00001F4F2F76722E97FF09C090958095709593
:100C100061957F4F8F4F9F4F2068722E2AE030E002
:100C2000A4010E943207A82EA81844C0853729F4D1
:100C30002F7EB22E2AE030E025C0F22FF97FBF2EA2
:100C40008F36C1F018F4883579F0B4C0803719F0C8
:100C5000883721F0AFC02F2F2061B22EB4FE0DC017
:100C60008B2D8460B82E09C024FF0AC09F2F966088
:100C7000B92E06C028E030E005C020E130E002C017
:100C800020E132E0F801B7FE07C060817181828106
:100C900093810C5F1F4F06C06081718180E090E0FE
:100CA0000E5F1F4FA4010E943207A82EA818FB2D2B
:100CB000FF777F2E76FE0BC0372D3E7FA51450F4B4
:100CC00074FE0AC072FC08C0372D3E7E05C0BA2CE7
:100CD000372D03C0BA2C01C0B52C34FF0DC0FE0166
:100CE000EA0DF11D8081803311F4397E09C032FF95
:100CF00006C0B394B39404C0832F867809F0B394EC
:100D000033FD13C030FF06C05A2CB31418F4530C33
:100D10005B18B32CB31468F4B70180E290E03C8711
:100D20000E94FA06B3943C85F5CFB31410F43B1837
:100D300001C0312C34FF12C0B70180E390E03C8742
:100D40000E94FA063C8532FF17C031FD03C088E7D8
:100D500090E002C088E590E0B7010CC0832F867850
:100D600059F031FF02C08BE201C080E237FD8DE215
:100D7000B70190E00E94FA06A51438F4B70180E3A9
:100D800090E00E94FA065A94F7CFAA94F401EA0D73
:100D9000F11D8081B70190E00E94FA06A110F5CF05
:100DA000332009F451CEB70180E290E00E94FA06A8
:100DB0003A94F6CFF7018681978102C08FEF9FEFBB
:100DC0002C96E2E10C94AC07FC0105906150704058
:100DD0000110D8F7809590958E0F9F1F0895FC0104
:100DE0006150704001900110D8F7809590958E0F5A
:100DF0009F1F08950F931F93CF93DF93FB012381D0
:100E000021FD03C08FEF9FEF28C022FF16C046814F
:100E10005781248135814217530744F4A081B18161
:100E20009D012F5F3F4F318320838C932681378133
:100E30002F5F3F4F3783268310C0EB01092F182FF8
:100E40000084F185E02D0995892BE1F68E819F8143
:100E500001969F838E83812F902FDF91CF911F91D9
:100E60000F910895FA01AA27283051F1203181F11C
:100E7000E8946F936E7F6E5F7F4F8F4F9F4FAF4FA2
:100E8000B1E03ED0B4E03CD0670F781F891F9A1FB5
:100E9000A11D680F791F8A1F911DA11D6A0F711D69
:100EA000811D911DA11D20D009F468943F912AE075
:100EB000269F11243019305D3193DEF6CF0108955D
:100EC000462F4770405D4193B3E00FD0C9F7F6CF8E
:100ED000462F4F70405D4A3318F0495D31FD405256
:100EE000419302D0A9F7EACFB4E0A69597958795EC
:100EF00077956795BA95C9F70097610571050895CB
:100F00009B01AC010A2E0694579547953795279576
:100F1000BA95C9F7620F731F841F951FA01D08950E
:100F20002F923F924F925F926F927F928F929F92F9
:100F3000AF92BF92CF92DF92EF92FF920F931F93E7
:100F4000CF93DF93CDB7DEB7CA1BDB0B0FB6F89498
:100F5000DEBF0FBECDBF09942A88398848885F84D8
:100F60006E847D848C849B84AA84B984C884DF8049
:100F7000EE80FD800C811B81AA81B981CE0FD11D2D
:100F80000FB6F894DEBF0FBECDBFED010895F89403
:020F9000FFCF91
:100F92006D00000003000000008B03950300005366
:100FA200656E736F726573204174697661646F73E5
:100FB200210053656E736F726573204465736174AB
:100FC200697661646F73210054656D706572617436
:100FD2007572613A2025642043004C757A204C6971
:100FE2006761646121004C757A204465736C69679E
:100FF20061646121004C757A32204465736C6967C3
:1010020061646121004C757A32204C6967616461C8
:101012002100436F6F6C6572204C696761646F21B8
:1010220000436F6F6C6572204465736C696761641D
:101032006F2100506F727461204162657274612188
:1010420000506F72746120466563686164612100BB
:1010520054656D70657261747572613A2025640021
:00000001FF
